:020000040800F2
:10000000982600205D02000889B000088BB0000827
:100010008FB0000893B0000897B0000800000000FF
:100020000000000000000000000000009BB000087D
:100030009DB00008000000009FB00008A1B00008BB
:1000400077020008770200087702000877020008AC
:10005000770200087702000877020008770200089C
:10006000770200087702000877020008770200088C
:10007000770200087702000877020008770200087C
:10008000770200089B330008770200087702000817
:10009000092F00087702000877020008770200089D
:1000A000770200087702000877020008770200084C
:1000B000770200087702000877020008770200083C
:1000C000770200087702000877020008770200082C
:1000D000770200080F310008CB3300088335000891
:1000E000770200087702000877020008770200080C
:1000F00077020008770200087702000877020008FC
:100100007702000869980008770200087702000863
:1001100077020008770200087702000877020008DB
:1001200077020008770200087702000877020008CB
:1001300077020008770200087702000877020008BB
:1001400077020008770200087702000877020008AB
:10015000770200087702000877020008770200089B
:10016000770200087702000877020008770200088B
:10017000770200087702000877020008770200087B
:10018000770200087702000800F002F800F04FF84C
:100190000AA090E8000C82448344AAF10107DA45E2
:1001A00001D100F044F8AFF2090EBAE80F0013F0E5
:1001B000010F18BFFB1A43F0010318473C900300DE
:1001C0005C900300103A24BF78C878C1FAD852076F
:1001D00024BF30C830C144BF04680C6070470000C1
:1001E0000023002400250026103A28BF78C1FBD840
:1001F000520728BF30C148BF0B60704766290DF019
:10020000E48764290BF0C48078290BF0FD8000207E
:1002100070471FB50DF0D4FF0BF0A6FD04000020C1
:1002200000210DF03BFAE0601FBD10B510BD0BF0D2
:10023000A3FE1146FFF7EDFF09F090FE0BF0C1FEA3
:1002400003B4FFF7F2FF03BC02F002FF30BF72B647
:10025000704762B6704780F3088870470948804746
:1002600009480047FEE7FEE7FEE7FEE7FEE7FEE798
:10027000FEE7FEE7FEE7FEE704480549054A064BB0
:100280007047000081B10008890100089820002013
:10029000982600209822002098220020324901430D
:1002A000324A1160704770B5002100230F22C478D4
:1002B0001CB32E4C246804F4E064C4F5E064C4F379
:1002C0000721C1F10404E3B20A4144789C40E1B241
:1002D0008478144021430C07210E254C0578615584
:1002E000047804F01F050124AC4005786D11AD00C1
:1002F00005F1E025C5F8004109E0047804F01F0588
:100300000124AC401B4D0678761145F8264070BD9F
:10031000194A0A400243154B1B1F1A60704739B136
:10032000124A121D12680243104B1B1D1A6006E090
:100330000E4A121D126882430C4B1B1D1A60704737
:10034000042808D14FF0E021096941F004014FF081
:10035000E022116107E04FF0E021096921F004017A
:100360004FF0E022116170470000FA050CED00E04B
:1003700000E400E080E100E080FFFF1F10B50446CC
:100380009848844208D10121084600F086FB0021EC
:10039000012000F082FB76E09348844208D10121DD
:1003A000022000F07AFB0021022000F076FB6AE0D8
:1003B0008E48844208D10121042000F06EFB002108
:1003C000042000F06AFB5EE08948844208D10121E4
:1003D000082000F062FB0021082000F05EFB52E0E4
:1003E0008448844208D10121102000F056FB0021EE
:1003F000102000F052FB46E07F48844208D10121E2
:10040000202000F04AFB0021202000F046FB3AE0CB
:100410007A48844208D10121402000F03EFB0021AF
:10042000402000F03AFB2EE07548844208D10121BB
:10043000802000F032FB0021802000F02EFB22E023
:100440007048844208D10121801500F026FB00216C
:10045000A01500F022FB16E06B48844208D1012170
:10046000401500F01AFB0021601500F016FB0AE0B1
:100470006648844207D10121001500F00EFB0021DF
:10048000201500F00AFB10BDF0B50A46002100233C
:10049000002400BF3DE0012505FA01F3156805EAD7
:1004A00003049C4234D105684F000326BE40B54387
:1004B000056015794E00B54006683543056015792D
:1004C000012D02D01579022D16D185684F00032623
:1004D000BE40B543856055794E00B54086683543CA
:1004E0008560456801268E40B5434560456896792C
:1004F0008E40B6B235434560C5684F000326BE4006
:10050000B543C560D5794E00B540C6683543C56072
:10051000491C1029BFD3F0BD4FF6FF7101600021C7
:10052000017141718171C171704708B54FF480321A
:100530000092009A0A430092009AC261C161009A37
:10054000C261C2690092C269009208BD02460020E1
:1005500013690B400BB1012000E0002070470146F9
:10056000086980B270470246002053690B400BB106
:10057000012000E0002070470146486980B27047C2
:1005800001837047418370470AB1018300E04183D2
:1005900070474161704742694A4042617047F0B517
:1005A000002300244D07ED0E02FA05F3CE1000F1F2
:1005B000200555F826504E07F70E0F26BE40B543CE
:1005C000CF1000F1200646F82750CE1000F120058C
:1005D00055F8265045EA0304CE1000F1200545F8F1
:1005E0002640F0BD00000240000402400008024026
:1005F000000C0240001002400014024000180240AB
:10060000001C02400020024000240240002802405A
:10061000F948006840F00100F74908600020F649F9
:1006200008310860F4480068F4490840F24908605D
:10063000F348091D0860F348EF4984310860F04829
:100640001038091D0860EC48006820F48020EA4951
:1006500008600020E8490C310860E7498C310860E7
:1006600070470021E44A921C1170114608707047CF
:1006700010B501460022002300204A11012A02D1B0
:10068000DD4C236808E0022A03D1DB4C7034236878
:1006900002E0D94C7434236801F01F020124944015
:1006A0001C400CB1012000E0002010BD38B5002036
:1006B00000900024002500BF3120FFF7D9FF054638
:1006C0000098401C00900098B0F5A04F01D0002D7C
:1006D000F2D03120FFF7CCFF08B1012400E0002464
:1006E000204638BD01460020C34A106820F0F800BB
:1006F00040EAC10010607047C3490860704700219C
:10070000BD4A703211701170012802D004280AD13C
:1007100004E00121B84A7032117005E00521B64AA3
:100720007032117000E000BF00BF7047B749086029
:10073000704770B5049C41EA82150126C6EB53064A
:1007400045EA0645054345EA0465AB4E361D35606E
:1007500070BDAD4908667047820142EA0172A64B3E
:1007600084331A607047A8498866704710B58301C2
:1007700043EA016343EA02739F4C8834236010BD4F
:10078000A14908677047A049C86470470246002025
:10079000994B0833186820F0EC6042EA01031843D3
:1007A000954B08331860704702460020924B08337F
:1007B000186820F0784042EA010318438E4B083352
:1007C00018607047014600208B4A0832106820F0FC
:1007D000030008431060704787480830006800F045
:1007E0000C00704701460020834A0832106820F050
:1007F000F000084310607047014600207E4A08322E
:10080000106820F4E0500843106070470146002053
:10081000794A0832106820F4604040EAC100106054
:100820007047F0B500210022002402250026022393
:10083000714F08373F6807F00C0121B1042905D03A
:10084000082937D105E0724F076036E0714F076025
:1008500033E0694F3F1D3F68C7F38056664F3F1D29
:100860003F6807F03F036EB16A4FB7FBF3F7DFF85D
:1008700088C10CF1040CDCF800C0CCF3881C07FB29
:100880000CF40CE0624FB7FBF3F7DFF86CC10CF12E
:10089000040CDCF800C0CCF3881C07FB0CF4564FAA
:1008A0003F1D3F68C7F301477F1C7D00B4FBF5F790
:1008B000076002E0564F076000BF00BF4E4F083789
:1008C0003F6807F0F0010909534F7A5C0768D74089
:1008D0004760494F08373F6807F4E051890A4E4F97
:1008E0007A5C4768D7408760434F08373F6807F412
:1008F0006041490B484F7A5C4768D740C760F0BDFC
:10090000002100F44072B2F5407F0AD13A4A083221
:10091000116821F4F811414A02401143364A083265
:100920001160354A70321268C0F30B031A43324B20
:1009300070331A607047354944390860704733494D
:10094000403908607047364908607047014600200A
:10095000294A8C32106820F01F004A1E1043264A94
:100960008C321060704701460020234A8C32106898
:1009700020F4F8504A1E40EA02201F4A8C321060D0
:100980007047014600201C4A8C32106820F4401049
:1009900008431060704701460020174A8C321068E7
:1009A00020F4400008431060704701460020124ABE
:1009B0008C32106820F440300843106070471949A9
:1009C0000860704739B10C4A3032126802430A4B52
:1009D00030331A6006E0084A303212688243064B10
:1009E00030331A607047F9B1034A34321268024357
:1009F000014B34331A601CE000380240FFFFF6EA76
:100A0000103000240030002000004742800E474292
:100A10000024F40000127A0000000020FFFCFF0F09
:100A20005C014742E01147428F4A126882438E4B75
:100A30001A60704739B18C4A121D126802438A4B02
:100A40001B1D1A6006E0884A121D12688243864BFD
:100A50001B1D1A60704739B1834A0C321268024379
:100A6000814B0C331A6006E07F4A0C3212688243D5
:100A70007D4B0C331A60704739B17B4A10321268D3
:100A80000243794B10331A6006E0774A103212683D
:100A90008243754B10331A60704739B1724A243A59
:100AA00012680243704B243B1A6006E06E4A243AF7
:100AB000126882436C4B243B1A60704739B16A4A12
:100AC000203A12680243684B203B1A6006E0664AEF
:100AD000203A12688243644B203B1A60704739B158
:100AE000614A1C3A126802435F4B1C3B1A6006E0E5
:100AF0005D4A1C3A126882435B4B1C3B1A6070478C
:100B000039B1594A143A12680243574B143B1A60E0
:100B100006E0554A143A12688243534B143B1A605C
:100B2000704739B1504A103A126802434E4B103B9D
:100B30001A6006E04C4A103A126882434A4B103B56
:100B40001A60704739B1484A1C3212680243464B5A
:100B50001C331A6006E0444A1C3212688243424B3E
:100B60001C331A60704739B13F4A20321268024381
:100B70003D4B20331A6006E03B4A20321268824324
:100B8000394B20331A60704739B1374A2432126822
:100B90000243354B24331A6006E0334A243212688C
:100BA0008243314B24331A60704739B12E4A2C32BC
:100BB000126802432C4B2C331A6006E02A4A2C326E
:100BC00012688243284B2C331A60704739B1264A89
:100BD000303212680243244B30331A6006E0224A56
:100BE000303212688243204B30331A60704701283C
:100BF00008D11D493C31096841F008011A4A3C32CC
:100C0000116007E018493C31096821F00801164AD3
:100C10003C321160704739B1134A273A12780243C7
:100C2000114B273B1A7006E00F4A273A127882438D
:100C30000D4B273B1A7070470B484030006840F05E
:100C40008070094940310860704701460020064A1B
:100C5000283A12680A400AB1012000E000207047DB
:100C600001492639087070473438024010B50446EF
:100C7000FA48844208D101211020FFF752FF0021D9
:100C80001020FFF74EFF57E0F548844209D10121BB
:100C90004804FFF735FF00214FF40030FFF730FF25
:100CA0004AE0F048844209D101218804FFF728FF77
:100CB00000214FF48020FFF723FF3DE0EA48844203
:100CC00009D10121C804FFF71BFF00214FF40020C8
:100CD000FFF716FF30E0E548844209D101210805FD
:100CE000FFF70EFF00214FF48010FFF709FF23E00C
:100CF000DF48844208D101212020FFF712FF0021A4
:100D00002020FFF70EFF17E0DA48844209D10121C5
:100D10008807FFF7F5FE00214FF08040FFF7F0FE57
:100D20000AE0D548844207D101214005FFF7E8FEDB
:100D300000216005FFF7E4FE10BD2DE9FF470546E1
:100D40000E460024A14600BFA046B08900B100BFF6
:100D50002C8A24F44054F08804432C82AC8941F25C
:100D60000C608443B0883189084371890843044387
:100D7000AC81AC8A24F44074B0890443AC826846E8
:100D8000FFF74FFDB548854202D0B948854202D1F0
:100D9000DDF80C9001E0DDF80890A88900F400402F
:100DA00040B109EBC90000EB091031684900B0FB04
:100DB000F1F707E009EBC90000EB09103168890081
:100DC000B0FBF1F76420B7FBF0F0040120096421C7
:100DD00001FB1078A88900F4004040B1322000EBFC
:100DE000C800B0FBF1F000F00700044308E0322037
:100DF00000EB08106421B0FBF1F000F00F00044399
:100E00002C81BDE8FF874FF41651016000218180DD
:100E1000C18001810C21418100218181704710B581
:100E200002460020108A20F470600B884C8823430F
:100E30008C882343CC8823431843108210BD0021A3
:100E4000018041808180C180704721B1828942F454
:100E50000052828104E082894DF6FF731A4082813C
:100E60007047028B02F47F420283028B0A430283A3
:100E7000704721B1828942F40042828103E0828975
:100E8000C2F30E028281704721B1828A42F400626D
:100E9000828204E0828A4FF2FF731A408282704796
:100EA000C1F308028280704701468888C0F30800B9
:100EB0007047028A4FF6F0731A400282028A0A4390
:100EC0000282704721B1828942F00202828104E0ED
:100ED00082894FF6FD731A408281704782894FF2F2
:100EE000FF731A40828182890A4382817047028A95
:100EF0004FF6DF731A400282028A0A430282704769
:100F000021B1028A42F48042028204E0028A4BF656
:100F1000FF731A4002827047818941F0010181818B
:100F2000704721B1828A42F00802828204E0828AFC
:100F30004FF6F7731A4082827047028BD2B2028357
:100F4000028B42EA01220283704721B1828A42F079
:100F50002002828204E0828A4FF6DF731A40828286
:100F6000704721B1828A42F01002828204E0828AB4
:100F70004FF6EF731A4082827047828A4FF6FB73F6
:100F80001A408282828A0A438282704721B1828A11
:100F900042F00202828204E0828A4FF6FD731A4018
:100FA000828270471AB1838A0B43838202E0838A6C
:100FB0008B4383827047F0B503460024002600254A
:100FC000002040F66A17B94200D100BF1846C1F3AD
:100FD000421401F01F06012707FA06F5012C01D182
:100FE0000C3004E0022C01D1103000E014301AB1B2
:100FF00007682F43076002E00768AF430760F0BD52
:1010000002460020B1F5007F00D100BF13880B40DD
:101010000BB1012000E00020704701F40072B2F52E
:10102000007F00D100BFCA430280704770B50246FE
:10103000002400230025002040F66A16B14200D1AA
:1010400000BFC1F3421501F01F03012606FA03F3A6
:10105000012D13D19689334017E0000000100140A4
:101060000044004000480040004C00400050004058
:101070000014014000780040007C0040022D02D1A5
:10108000168A334001E0968A33400C12012606FA94
:1010900004F41688344013B10CB1012000E00020A4
:1010A00070BD10B50022002340F66A14A14200D1A1
:1010B00000BF0A1201249440A3B2DC43048010BD97
:1010C00010B50446FE48844209D101214806FFF7C5
:1010D00017FD00214FF00070FFF712FD08E001211D
:1010E0008806FFF70DFD00214FF08060FFF708FD37
:1010F00010BD30B5024600200023146824F002041D
:101100001460146844F00104146000E05B1C54682F
:1011100004F001041CB94FF6FF74A342F6D15468E1
:1011200004F001040CB900206CE08C79012C04D18E
:10113000146844F08004146003E0146824F0800410
:101140001460CC79012C04D1146844F0400414607C
:1011500003E0146824F0400414600C7A012C04D1DC
:10116000146844F02004146003E0146824F02004A0
:1011700014604C7A012C04D1146844F010041460FB
:1011800003E0146824F0100414608C7A012C04D15C
:10119000146844F00804146003E0146824F00804A0
:1011A0001460CC7A012C04D1146844F00404146057
:1011B00003E0146824F0040414608C78A407CD784C
:1011C00044EA05640D7944EA05444D7944EA05543E
:1011D0000D886D1E2C43D461146824F00104146042
:1011E000002300E05B1C546804F001041CB14FF6BE
:1011F000FF74A342F6D1546804F001040CB100203E
:1012000000E0012030BD10B50021837A012202FAEE
:1012100003F1AC4A126842F00102AA4B1A60A94AD3
:101220001C3212688A43A74B1C331A60027BCAB96E
:10123000A44A0C3212688A43A24B0C331A604288CB
:10124000C38842EA03439F4A4032847A42F83430EA
:101250000288838842EA03439A4A4032847A02EB46
:10126000C4025360027B012A19D1964A0C321268DB
:101270000A43944B0C331A604288038842EA0343C2
:10128000904A4032847A42F83430C288838842EAF5
:1012900003438C4A4032847A02EBC4025360C27A20
:1012A0003AB9884A121D12688A43864B1B1D1A6080
:1012B00006E0844A121D12680A43824B1B1D1A6005
:1012C000028932B97F4A143212688A437D4B143343
:1012D0001A600289012A06D17A4A143212680A4336
:1012E000784B14331A60427B012A06D1754A1C32AE
:1012F00012680A43734B1C331A60724A126822F058
:101300000102704B1A6010BD00218171C171017220
:1013100041728172C1728170C17003210171022119
:1013200041710121018070476649096841F001015E
:10133000644A11601146096843F60E729143614A8E
:1013400011601146096841EA0021116011460968DF
:1013500021F001011160704721B1026842F480322E
:10136000026003E0026822F4803202607047E1B15B
:10137000026842F0800202604FF4C272125842F4D6
:1013800080734FF4C27213504FF4CA72125842F471
:1013900080734FF4CA7213504FF4D272125842F451
:1013A00080734FF4D27213501BE0026822F0800267
:1013B00002604FF4C272125822F480734FF4C2726A
:1013C00013504FF4CA72125822F480734FF4CA7249
:1013D00013504FF4D272125822F480734FF4D27229
:1013E0001350704710B502460020936803F08063E5
:1013F000B3F1806F00D110E0936803F00063B3F1A4
:10140000006F01D1012008E0936803F08053B3F12D
:10141000805F01D1022000E00420042879D002F589
:10142000C07303EB00131B6803F0010402F5C073E3
:1014300003EB00131C600B7A7BB94B7A0C8843EAF0
:10144000445302F5C07404EB00142468234302F5EE
:10145000C07404EB0014236010E00B7A4C6843EA7C
:10146000C4034C7A234302F5C07404EB00142468CF
:10147000234302F5C07404EB001423608B7A03F05D
:101480000F038B7202F5C07303EB00135B6823F04C
:101490000F0402F5C07303EB00135C6002F5C07328
:1014A00003EB00135B688C7A234302F5C07404EBF2
:1014B000001463608B7B1C064B7B44EA034403E00F
:1014C00000640040006600400B7B44EA0323CC7AB2
:1014D000234302F5C07404EB0014A3608B7C1C064C
:1014E0004B7C44EA03440B7C44EA0323CC7B234338
:1014F00002F5C07404EB0014E36002F5C07303EB63
:1015000000131B6843F0010402F5C07303EB0013E2
:101510001C6010BD10B50246002321B1012907D07F
:1015200002290FD109E09068F94C00EA04030BE0AE
:101530009068F84C00EA040306E09068F64C00EA74
:10154000040301E0002300BF00BFF44C181BA342BA
:1015500016D007DC83B16FF08060184470B10228A8
:1015600018D111E0B0F5007F10D0ED4C204448B107
:10157000B0F5003F0ED10BE002230DE000230BE09D
:10158000002309E0002307E0012305E0012303E035
:10159000012301E0002300BF00BFD8B210BD21B17C
:1015A000012907D002290FD109E0826842F08002A8
:1015B00082600AE0826842F40042826005E082684C
:1015C00042F40002826000E000BF00BF704710B527
:1015D00000F5D87303EB01131B6803F004031372C7
:1015E000137A53B900F5D87303EB01131B6840F26B
:1015F000FF7404EA5353136009E000F5D87303EB5A
:1016000001131B686FF0604404EAD303536000F5D4
:10161000D87303EB01131B6803F00203537200F548
:10162000D87303EB01135B6803F00F03937200F5AB
:10163000D87303EB01135B681B0AD37400F5D873EE
:1016400003EB01139B68D37200F5D87303EB01130E
:101650009B681C0A147300F5D87303EB01139B6895
:101660001C0C547300F5D87303EB01139B681B0E1D
:10167000937300F5D87303EB0113DB68D37300F5A4
:10168000D87303EB0113DB681C0A147400F5D873DC
:1016900003EB0113DB681C0C547400F5D87303EBE7
:1016A0000113DB681B0E937421B9C36843F0200358
:1016B000C36003E0036943F02003036110BD21B957
:1016C000C26842F02002C26003E0026942F02002D8
:1016D000026170470246002019B9D36803F0030085
:1016E00006E0012903D1136903F0030000E00020A4
:1016F000704710B502460B4600204FF6FF71BBB98C
:10170000146824F0020444F00104146000E0491E4F
:10171000546804F00304012C01D00029F7D1546867
:1017200004F00304012C01D0002032E0012030E05D
:10173000012B13D1146824F00304146000E0491E47
:10174000546804F003040CB10029F8D1546804F083
:1017500003040CB100201CE001201AE0022B17D179
:10176000146824F0010444F00204146000E0491EEF
:10177000546804F00304022C01D00029F7D1546806
:1017800004F00304022C01D0002002E0012000E05C
:10179000002010BD014600200A6822F0010242F03C
:1017A00002020A604A6802F00302022A00D1012004
:1017B000704701464FF6FF7200200B6823F00203CA
:1017C0000B6000E0521E4B6803F00203022B01D1B4
:1017D000002AF7D14B6803F00203022B00D001204E
:1017E0007047014600208A6902F070007047014688
:1017F00000208A69100E7047014600208A69C2F3F2
:10180000074070471AB143690B43436102E04369E3
:101810008B434361704710B50246002001F470030A
:1018200043B19369C1F3130423400BB101202DE0B0
:1018300000202BE001F0807343B15368C1F313041F
:1018400023400BB1012021E000201FE001F00063E4
:1018500043B19368C1F3130423400BB1012015E099
:10186000002013E001F0007343B1D368C1F3130407
:1018700023400BB1012009E0002007E01369C1F308
:10188000130423400BB1012000E0002010BD002212
:10189000244B994202D10023836111E0C1F313026A
:1018A00001F000730BB1C2600AE001F080630BB17C
:1018B000026105E001F000630BB1826000E042606C
:1018C00070470246002002EA01030BB1012000E04C
:1018D0000020704770B504460D4600266069284018
:1018E000002872D0B5F5807F69D01DDC082D42D06C
:1018F00006DC012D2DD0022D31D0042D7FD134E016
:10190000102D3ED0202D42D0402D78D145E0000052
:101910000300000400030008000003100001000899
:101920000001FFF77000F030B5F5004F61D009DC21
:10193000B5F5007F4AD0B5F5806F4DD0B5F5006F95
:101940005DD150E0B5F5803F2DD0B5F5003F56D1C3
:101950002FE0A0685549FFF7B4FF064651E0E06864
:101960000321FFF7AEFF06464BE0E0680821FFF7D2
:10197000A8FF064645E0E0681021FFF7A2FF0646F3
:101980003FE020690321FFF79CFF064639E020690C
:101990000821FFF796FF064633E020691021FFF784
:1019A00090FF06462DE060680821FFF78AFF064693
:1019B00027E060681021FFF784FF064621E0A06958
:1019C0000121FFF77EFF06461BE01BE0A069022114
:1019D000FFF777FF064614E0A0690421FFF771FFC7
:1019E00006460EE00BE0A0697021FFF76AFF06468D
:1019F00007E060680421FFF764FF064601E0002667
:101A000000BF00E00026304670BDB1F5007F3AD03F
:101A10000FDC202928D006DC01291CD004291DD088
:101A2000082940D11DE0402921D0B1F5807F3AD16D
:101A300026E0B1F5004F31D006DCB1F5806F25D03E
:101A4000B1F5006F2FD124E0B1F5803F12D0B1F590
:101A5000003F28D111E0154A826025E00822C260CB
:101A600022E01022C2601FE0082202611CE0102266
:101A7000026119E00822426016E01022426013E081
:101A80000422426010E0042242600DE00422426021
:101A90000AE0002282610422426005E000228261A5
:101AA0000422426000E000BF00BF70470101010056
:101AB000016821F001010160002101604160816045
:101AC000C160016121214161DB49884204D13D218E
:101AD000D94A103A91608CE0D7491831884205D133
:101AE0004FF47461D44A103A916082E0D2493031A7
:101AF000884205D14FF47411CF4A103A916078E0D2
:101B0000CD494831884205D14FF07461CA4A103A34
:101B100091606EE0C8496031884204D1C749C64A25
:101B2000103AD16065E0C4497831884204D1C44993
:101B3000C14A103AD1605CE0BF499031884204D17B
:101B4000C049BD4A103AD16053E0BB49A831884230
:101B500005D14FF03D51B84A103AD16049E0BA4939
:101B6000884204D13D21B84A083A116041E0B649A3
:101B70001831884205D14FF47461B34A083A1160B4
:101B800037E0B1493031884205D14FF47411AE4A83
:101B9000083A11602DE0AC494831884205D14FF038
:101BA0007461A94A083A116023E0A749603188426C
:101BB00004D1A249A44A121F11601AE0A249783147
:101BC000884204D19E49A04A121F116011E09E492B
:101BD0009031884204D19B499B4A121F116008E052
:101BE0009949A831884204D14FF03D51964A121FBD
:101BF0001160704710B500220268944B1A40CC68FF
:101C00000B6823434C6923438C692343CC692343EA
:101C10000C6A23434C6A23438C6A23434C6B234353
:101C20008C6B23431A430260426922F00702D1E918
:101C30000B3423431A4342610B6943604B68836052
:101C40008B68C36010BD0021016041608160C1608C
:101C5000016141618161C161016241628162C16270
:101C6000016341638163704721B1026842F0010260
:101C7000026003E0026822F001020260704721B1B5
:101C8000026842F40042026003E0026822F400426B
:101C90000260704721B1026842F02002026003E056
:101CA000026822F0200202607047416070470146DE
:101CB000486880B2704722B1036843F40023036090
:101CC00003E0036823F4002303600161704721B13E
:101CD000026842F48022026003E0026822F480225B
:101CE000026070470AB1016100E0C16070470146BF
:101CF00000200A6802F400220AB1012000E000205E
:101D00007047014600200A6802F001020AB1012072
:101D100000E000207047014600204A6902F03800C8
:101D2000704730B503460A4600200024464DAB42BA
:101D300002D24149103901E04349103902F00055FF
:101D40000DB14C6800E00C68414D2C4004EA0205DE
:101D50000DB1012000E0002030BD02463A4B9A420E
:101D600002D23548103801E03748103801F00053EE
:101D70001BB1374B0B40C36002E0354B0B40836017
:101D8000704710B501F080034BB122B1436943F0B5
:101D90008003436103E0436923F0800343618029AA
:101DA0000BD02AB1036801F01E042343036004E052
:101DB000036801F01E04A343036010BD70B5024622
:101DC000002000240025204EB24202D21A4B103BC4
:101DD00001E01D4B103B1F4E0E4036B11E2606EA99
:101DE000D124166806EA040502E0566906F080056B
:101DF00001F000560EB15C6800E01C68144E3440DF
:101E000004EA010616B10DB1012000E0002070BD0A
:101E100002460D4B9A4202D20748103801E00A48A8
:101E2000103801F000531BB1094B0B40C36002E0B6
:101E3000074B0B4083607047106002403D0000205C
:101E4000400F002000003D20106402403F801CF045
:101E50007D0F7D0F3C0F3C0F10B50121C802FEF72E
:101E600060FE00214FF40060FEF75BFE10BD002114
:101E70006C4A116847F6FF629143027D83681A43FA
:101E800043681A43C3681A4303681A4303691A4331
:101E90001143644A1160704700210175016041607F
:101EA0008160C160016170475F49086070475D49AA
:101EB000091F086070475B48001F006800F00300BE
:101EC00070470021574B1B1D02681A601A1D1168CC
:101ED0006FF30A01D0E901231A43C3681A43036967
:101EE0001A4311434F4A08321160704700210160C4
:101EF00041608160C160016170474A480C300068F0
:101F0000C0B2704708B50146002000904548103027
:101F1000084400900098006808BD0021414B203320
:101F200002681A601B1D42681A601A1D116821F0B0
:101F3000F701D0E902231A4303691A4343691A439C
:101F40001143384A2832116070474FF0FF31016069
:101F5000002141608160C160016141617047314889
:101F60002C30006870472F487C30006870472D493E
:101F70007C31086070472B484430006870472B491B
:101F8000086070472949091D0860704727490831D2
:101F90000860704725490C31086070472449086083
:101FA00070472349091D0860704701218143204A79
:101FB0000832116070471E490C31086070471B4998
:101FC00014390860704739B1164A38321268024332
:101FD000144B38331A6006E0124A383212688243D2
:101FE000104B38331A607047014600200D4A3032DA
:101FF00012680A400AB1012000E000207047094938
:1020000034310860704701460020064A30321268B9
:102010000A400AB1012000E0002070470149343134
:1020200008607047042C0140A0802542A08525420D
:10203000AC81254208B50022009200200021CA226E
:10204000F94B1A6053221A60F74A183A126822F0C4
:10205000A002F54B183B1A6000BFF34A183A126809
:1020600002F02001009A521C0092009AB2F5003F43
:1020700001D00029F1D0EC4A183A126802F020028F
:102080000AB1012000E00020FF22E74B1A6008BDE2
:1020900008B50022009200200021E34A183A126895
:1020A00002F04002E2B9421EDF4B183B1A6000BF4B
:1020B000DD4A183A126802F04001009A521C009260
:1020C000009AB2F5803F01D00029F1D0D64A183AE3
:1020D000126802F040020AB1012002E0002000E094
:1020E000012008BD38B50020009000240025CA203A
:1020F000CD49086053200860FFF7CAFF00B952E0DD
:102100000020C9492439086042F20110091D086005
:10211000081D006800F00700091D086000BFC248E4
:102120001838006800F004040098401C00900098E3
:10213000B0F5803F01D0002CF1D0BB4818380068C2
:1021400000F0040008B900252DE0B7481C380068ED
:102150000020B5491C3908604FF6FF70B2491039AC
:102160000860B248091F08600020AF490C390860B8
:10217000091D0860091D0860AB4908310860AA49BB
:1021800018310860A84920310860091D0860A64977
:1021900018390860A4491C310860FFF74BFF08B9E3
:1021A000002500E00125FF209F490860284638BD32
:1021B0009D481838006820F080009B491839086055
:1021C000704730B504460025CA209749086053205F
:1021D0000860FFF75DFF00B91DE093481C380068F8
:1021E00020F0400090491C390860084600682168CA
:1021F00008438D491C3908608B491439A068086070
:1022000008460068A18840EA0140874914390860FF
:10221000FFF7CEFF0125FF2083490860284630BD27
:10222000002101607F214160FF218160704718B16A
:10223000FF217D4A116004E0CA217B4A11605321CD
:102240001160704730B504460025CA207649086001
:1022500053200860FFF71CFF00B914E044B1724836
:102260001C38006840F010006F491C39086007E016
:102270006D481C38006820F010006B491C3908605C
:10228000FFF796FF0125FF2067490860284630BD0B
:10229000CA21654A11605321116040B162491C395D
:1022A000096841F02001604A1C3A116007E05E496C
:1022B0001C39096801F0DF015B4A1C3A1160FF21FB
:1022C000594A116070470146002204E0501CC2B216
:1022D000A1F10A00C1B20A29F8DA100741EA106038
:1022E0007047014600BF080900EB8000420001F082
:1022F0000F001044C0B270472DE9F04105460C466E
:102300000026002755B948481C38006800F04000F6
:1023100000B102E00020E07000BF0EE042481C382F
:10232000006800F0400020B12078FFF7DAFF064691
:1023300002E00020E07000BF00BF55B1207800042B
:10234000617840EA0120A1780843E17840EA01463B
:1023500011E02078FFF7B7FF4FEA00486078FFF7F9
:10236000B2FF48EA0028A078FFF7ADFF48EA00086E
:10237000E07848EA0046CA202B49086053200860EC
:10238000FFF786FE08B9002714E0294830402649A7
:1023900024390860FFF70CFF23481C38006800F060
:1023A000200030B9FFF746FE08B9002702E00127F8
:1023B00000E00127FF201C4908603846BDE8F08195
:1023C0000021C170017041708170704770B5064680
:1023D0000C460025144824380068154900EA010518
:1023E000C5F305402070C5F30620607005F07F003E
:1023F000A07005F48000000CE0705EB92078FFF753
:1024000070FF20706078FFF76CFF6070A078FFF7B6
:1024100068FFA07070BD00200349091D08680249CB
:10242000203909687047000024280040FF007F0021
:102430007F7F7F002DE9F04105460C4600260027EE
:102440004DB9607800F01000102804D1607820F0B9
:1024500010000A30607005B908E06078FFF741FFAE
:102460000646A078FFF73DFF064600BF55B1E0786D
:102470000004617840EA0120A1780843217840EA0D
:10248000413611E0E078FFF71EFF4FEA0048607820
:10249000FFF719FF48EA0028A078FFF714FF48EA81
:1024A0000008207848EA4036CA20FE4908605320D8
:1024B0000860FFF7EDFD08B9002714E0FA48304046
:1024C000F84920390860FFF773FEF6481C380068A9
:1024D00000F0200030B9FFF7ADFD08B9002702E099
:1024E000012700E00127FF20EE4908603846BDE8DB
:1024F000F08101210170817041700021C17070472D
:1025000070B506460C460025E64820380068E649C6
:1025100000EA0105280CE070C5F30420607005F0A6
:102520003F00A070C5F3423020705EB9E078FFF73D
:10253000D8FEE0706078FFF7D4FE6070A078FFF7F7
:10254000D0FEA07070BD2DE9F04105460E46144640
:1025500000276DB9D3481C38006800F0400000B176
:1025600002E00020E07000BFA06800B91AE019E0A6
:10257000CC481C38006800F0400020B12078FFF7FC
:10258000B0FE074602E00020E07000BFA06820B95E
:10259000207BFFF7A6FE074604E0207BFFF7A1FEA5
:1025A000074600BF95B120780004617840EA012019
:1025B000A1780843E17840EA0140217B40EA0160CC
:1025C000A1680843616840EA01071BE02078FFF733
:1025D0007AFE4FEA00486078FFF775FE48EA002867
:1025E000A078FFF770FE48EA0008E07848EA004863
:1025F000207BFFF768FE48EA0060A1680843616835
:1026000040EA0107CA20A749086053200860B6F5D0
:10261000807F03D1A3480838076002E0A148001F6B
:102620000760FF209F490860BDE8F0810021C1706C
:10263000017041708170816001210173002141604E
:1026400070472DE9F04106460F4614460025B7F5C0
:10265000807F03D193480838056802E09148001F45
:102660000568C5F305402070C5F30620607005F0CD
:102670007F00A07005F48000000CE070C5F30560D9
:10268000207305F08040A06005F0803060607EB966
:102690002078FFF726FE20706078FFF722FE60703A
:1026A000A078FFF71EFEA070207BFFF71AFE2073B4
:1026B000BDE8F08138B502460024009400230020D4
:1026C000CA24784D2C6053242C6041B1754C1C3CBD
:1026D00024681443734D1C3D2C6001201EE0714C96
:1026E0001C3C246894436F4D1C3D2C6000BF6D4C16
:1026F000183C246804EA1223009C641C0094009C8B
:10270000B4F5803F01D0002BF1D0664C183C246812
:1027100004EA12240CB9002000E00120FF24614DDE
:102720002C6038BD30B50023CA245E4D2C60532484
:102730002C6041EA0203B0F5807F03D1594C20346C
:10274000236002E0574C24342360FF24554D2C6055
:1027500030BD01460020B1F5807F05D1514A2032BD
:102760001268C2F30E0004E04E4A24321268C2F32B
:102770000E007047CA214B4A11605321116049492C
:102780001C39096821F00701464A1C3A11601146BC
:10279000096801431160FF21424A11607047CA2154
:1027A000404A1160532111603E4910390860FF21F1
:1027B000116070473B481038006880B2704718B508
:1027C00001460023009300220020CA23354C2360D9
:1027D0005323236049B1334B1C3B1B6843F4806394
:1027E000304C1C3C236001201FE02E4B1C3B1B681F
:1027F00023F480632B4C1C3C236000BF294B183B07
:102800001B6803F00402009B5B1C0093009BB3F564
:10281000803F01D0002AF1D0224B183B1B6803F007
:1028200004030BB9002000E00120FF231D4C2360AE
:1028300018BDCA221B4B1A6053221A60194A1C3A4F
:10284000126822F48022174B1C3B1A601A46126849
:1028500040EA01031A43134B1C3B1A60FF22114B41
:102860001A6070470F481C38006800F480207047D9
:10287000CA220C4B1A6053221A600A4A1C3A126888
:1028800022F4E002074B1C3B1A601A46126840EA29
:1028900001031A43034B1C3B1A60FF22014B1A60D1
:1028A00070470000242800403FFFFF0070B5044639
:1028B0000D460026CA20F649086053200860FFF73D
:1028C000E7FB00B907E044EA0500F1490C3908606C
:1028D000FFF76EFC0126FF20ED490860304670BD11
:1028E00030B504460025CA20E94908605320086035
:1028F000FFF7CEFB00B914E044B1E5481C3800688E
:1029000040F08000E2491C39086007E0E0481C38CC
:10291000006820F08000DE491C390860FFF748FCA1
:102920000125FF20DA490860284630BDCA21D84A6F
:1029300011605321116040B1D5491C39096841F437
:102940000001D34A1C3A116007E0D1491C390968DB
:1029500021F40001CE4A1C3A1160FF21CC4A1160DB
:102960007047CA21CA4A116053211160C8491C39F5
:10297000096821F40021C64A1C3A11601146096811
:1029800001431160FF21C24A1160704770B50346D0
:1029900000200024CA25BE4E356053253560BC4D4D
:1029A000183D2D6805F4803555B100E0641CB84D24
:1029B000183D2D6805F4803515B1B4F5003FF5D10B
:1029C000B34D183D2D6805F480353DB943EA010546
:1029D0001543AF4E18363560012000E00020FF257A
:1029E000AB4E356070BD10B50A460021A84B1C3BAC
:1029F0001B6840F6080423EA04011AB140F400639E
:102A0000194300E00143CA23A14C236053232360F0
:102A10009F4B1C3B1960FF23236010BD2DE9F04143
:102A200080460C4615460026002799480C30006861
:102A3000984900EA0106964810300068964900EA75
:102A40000107C6F305402070C6F30620607006F04B
:102A50007F00A07006F48000000CE0700020E87099
:102A6000C7F30420687007F03F00A870C7F3423036
:102A70002870B8F1000F17D12078FFF732FC2070D2
:102A80006078FFF72EFC6070A078FFF72AFCA0703A
:102A90006878FFF726FC6870A878FFF722FCA8701A
:102AA0002878FFF71EFC2870BDE8F08178481430C4
:102AB0000068704741B9764A1C32126822EA400227
:102AC000734B1C331A6007E0714A1C32126842EAE9
:102AD00040026F4B1C331A60704739B16C4A1C328C
:102AE000126802436A4B1C331A6006E0684A1C32C3
:102AF00012688243664B1C331A60704764491C316C
:102B0000096821F4C051624A1C32116011460968FB
:102B10000143116070475E491C31096821F4E0618E
:102B20005B4A1C321160114609680143116070470D
:102B300057491C31096821F4C041554A1C321160C3
:102B40001146096801431160704740B150491C317A
:102B5000096841F080014E4A1C32116007E04C497F
:102B60001C31096821F08001494A1C32116070470C
:102B700040B147491C31096821F40041444A1C32E4
:102B8000116007E042491C31096841F40041404AA4
:102B90001C321160704708B5002200923C4A2C326A
:102BA0000092009A02EB80020092009A116008BD28
:102BB00008B501460020009035482C300090009860
:102BC00000EB810000900098006808BD30491C317E
:102BD000096821F480312E4A1C32116011460968BF
:102BE0000143116070472A491C31096821F4003102
:102BF000274A1C3211601146096801431160704771
:102C000023491C31096821F48021214A1C321160BA
:102C100011460968014311607047F0B504460D463E
:102C200000270026CA201A49086053200860184867
:102C30001838006800F0080050B100E0761C144815
:102C40001838006800F0080010B1B6F5805FF5D1C3
:102C50000F481838006800F0080098B90C481C3874
:102C6000006800F0100058B945EA0400084908312E
:102C70000860FFF7DFF908B9002704E0012702E048
:102C8000002700E00027FF20014908603846F0BD1A
:102C9000242800407F7F7F003FFFFF00CA223D4B7A
:102CA0001A6053221A6091B13A4A1C3A126820F015
:102CB00004031A43374B1C3B1A60364A1C32126815
:102CC00000F004031A43334B1C331A6011E0314AFD
:102CD0001C3A126820F004039A432E4B1C3B1A60E6
:102CE0002C4A1C32126800F004039A43294B1C330F
:102CF0001A60FF22274B1A60704710B5014600206A
:102D00000022244B183B1B68234C03EA040202EA0E
:102D100001030BB1012000E0002010BD81B241F0A1
:102D200080011C4A183A126802F0800262EA01012E
:102D3000184A183A1160704730B501460020002249
:102D40000023144C1C34246804F00402114C1C3C75
:102D500024680C4002EAD13544EA05030D4C183CC6
:102D6000246804EA11121BB194B20CB1012000E0F6
:102D7000002030BD002101098AB242F08002054BDB
:102D8000183B1B6803F0800363EA0202014B183B07
:102D90001A607047242800407F3F010010B50121D0
:102DA0000807FDF7ADFE00214FF08050FDF7A8FEAB
:102DB00010BD52490862704701460020504A106811
:102DC00020F0E0000843106070474C4908617047EC
:102DD0004A49A031086070474849A43108607047EB
:102DE00001460020464A106820F440400843106025
:102DF000704742490864704740494864704730B1A1
:102E00003F49096841F440213D4A116005E03C49D1
:102E1000096821F440213A4A1160704718B1012134
:102E2000364AD16202E00021344AD162704718B1BB
:102E30000121324A916202E00021304A91627047DA
:102E40002E494862704710B5024600202C4B186886
:102E500040F6034398431043294B1860294B1B68E5
:102E600043F00403274C2360012901D130BF00E067
:102E700020BF244B1B6823F00403224C236010BDA9
:102E800010B5024600201E4B186840F603439843D5
:102E900010431B4B18601B4B1B6843F00403194C79
:102EA0002360012901D130BF00E020BF154B1B6812
:102EB00023F00403134C236010BD1148006840F058
:102EC00002000F4908600F48006840F004000D49F7
:102ED000086000BF00BF30BF704701460020084AAD
:102EE00052680A400AB1012000E0002070470449FE
:102EF000096841EA8001024A1160704700000E42F1
:102F00000070004010ED00E010B50E48006800F0C1
:102F10003BFD0C480068002142680B48FEF757FB58
:102F200008480068406800F114010020FFF7E8FA43
:102F300004480068406800F118010020FFF746FAD5
:102F400010BD0000300000200064004010B50446B1
:102F50006FF00400FDF7F4F9E11704EB5171C1F3D0
:102F6000C701394A11701046007800EB4001C1EBEF
:102F7000C0104FF6FF7101EAC0003449088010BD4F
:102F80000146314A12784A434FF0E0235A61002249
:102F90009A611A46126942F001021A6100BF4FF0AD
:102FA000E022106900F001021AB100F48032002A18
:102FB000F5D04FF0E022126922F001024FF0E02339
:102FC0001A6100229A6170470146204A12884A43DA
:102FD0004FF0E0235A6100229A611A46126942F0CA
:102FE00001021A6100BF4FF0E022106900F00102F7
:102FF0001AB100F48032002AF5D04FF0E0221269B5
:1030000022F001024FF0E0231A6100229A6170471A
:1030100070B504464FF4077094FBF0F0C6B24FF45D
:10302000077094FBF0F100FB114085B205E04FF40E
:103030000770FFF7C9FF701EC6B2002EF7D115B199
:103040002846FFF7C1FF70BD1000002012000020CD
:1030500000BF704700BF4C4A128802F04002002AAD
:10306000F9D0C2B2484B9A80704710B588B0044678
:1030700001210846FDF7A6FC01211020FDF7FCFC0C
:10308000072209214148FDF78AFA07220A213F4811
:10309000FDF785FA4FF4C060069002208DF81C0001
:1030A0008DF81D0000208DF81E0001208DF81F00F6
:1030B00006A93648FDF7E8F902940020ADF80C00A7
:1030C000ADF80E00ADF81000ADF814000C20ADF80E
:1030D000120002A92C48FDF730FE01212A48FDF715
:1030E000B4FE012240F225512748FDF764FF252058
:1030F0008DF8040005208DF805008DF806000120EC
:103100008DF8070001A8FDF7CEF808B010BD10B586
:1031100040F225511C48FDF789FF10B31A48FDF70E
:10312000C3FEC4B21A48008800F40040C8B9184869
:10313000008800F4804060B10A2C03D000201449BC
:10314000088020E01248008840F4004010490880C0
:1031500019E00D2C06D10E48008840F480400C493F
:10316000088010E00A480088C0F30D0009490C549B
:1031700007480088401C0649088008460088C72880
:1031800001DD0020088010BD001001400000024059
:10319000180000208C00002010B596B004469C4812
:1031A000FDF764FD01210846FDF70CFC01214804F0
:1031B000FDF751FC072202219648FDF7F0F907229E
:1031C00003219448FDF7EBF90C20149002208DF8B0
:1031D000540003208DF8550000208DF85600012082
:1031E0008DF8570014A98B48FDF74EF91094002074
:1031F000ADF84400ADF84600ADF84800ADF84C001D
:103200000C20ADF84A0010A98148FDF796FD012178
:103210007F48FDF71AFE26208DF83C0001208DF82E
:103220003D008DF83E008DF83F000FA8FDF73BF8FC
:1032300010208DF83C0001208DF83D0002208DF813
:103240003E0001208DF83F000FA8FDF72CF811205B
:103250008DF83C0001208DF83D0003208DF83E00E4
:1032600001208DF83F000FA8FDF71DF8012240F264
:1032700024416748FDF79FFE012240216448FDF785
:1032800091FE012280216248FDF78CFE0121480554
:10329000FDF798FB6048FEF70BFC4FF000600090D4
:1032A0005B48001D01905D480290002003904FF4A0
:1032B00096700490002005904FF4806006900020E6
:1032C0000790089009904FF440300A9000200B902E
:1032D00003200C9000200D900E9069464E48FEF79A
:1032E00089FC01214C48FEF7BFFC4B481830FEF723
:1032F000DFFB00BF48481830FEF703FD0028F9D176
:103300004FF0006000904248001D01904448029038
:103310004020039080020490002005904FF48060CC
:10332000069000200790089009904FF480300A9092
:1033300000200B900C900D900E9069463648183086
:10334000FEF758FC0122102133481830FEF719FD12
:10335000002131481830FEF787FC01212C48FDF789
:1033600074FD16B010BD70B504460D462A462146C0
:103370002B4808F03CF900BF27481830FEF7C1FC85
:103380000028F9D1294624481830FEF78EFC012187
:1033900021481830FEF768FC70BD10B521491E4861
:1033A0001830FEF7BEFC78B11E491B481830FEF7F6
:1033B000D4FC002118481830FEF756FC012240F2D8
:1033C00026611348FDF7F7FD10BD10B540F224410A
:1033D0000F48FDF72BFE70B100210F48FEF744FCAB
:1033E00011490D48FEF7B9FC01210B48FEF73CFCE2
:1033F0000748FDF759FD40F227710548FDF700FE2B
:1034000028B9002240F226610148FDF7D4FD10BD25
:10341000004400400000024088600240800200201A
:1034200054010020000020200008002010B596B0B4
:1034300004467B48FDF71AFC01210220FDF7C2FA81
:1034400001218804FDF707FB07220B217548FDF7D2
:10345000A6F807220A217348FDF7A1F84FF440604F
:10346000139002208DF8500003208DF851000020A9
:103470008DF8520001208DF8530013A96948FDF71B
:1034800003F80F940020ADF84000ADF84200ADF80D
:103490004400ADF848000C20ADF846000FA9604884
:1034A000FDF74BFC27208DF8540002208DF85500C5
:1034B00001208DF856008DF8570015A8FCF7F3FE93
:1034C0000C208DF8540002208DF855008DF8560020
:1034D00001208DF8570015A8FCF7E5FE0E208DF8A9
:1034E000540002208DF8550003208DF8560001206D
:1034F0008DF8570015A8FCF7D6FE012240F22441B2
:103500004748FDF758FD012240214548FDF74AFD97
:10351000012280214248FDF745FD01214805FDF7C4
:1035200051FA4148FEF7C4FA4FF0006000903C4861
:10353000001D01903D480290002003901E20049041
:10354000002005904FF480600690002007900890BE
:1035500009904FF440300A9000200B9003200C900B
:1035600000200D900E9069462F48FEF743FB012185
:103570002D48FEF779FB01212948FDF766FC16B0BE
:1035800010BD10B540F224412548FDF74FFDD0B1E4
:1035900000212548FEF768FB25492348FEF7DDFB9F
:1035A00000240BE02348006800F08DFA1F48005DFE
:1035B0002049096849680870601CC4B20E2CF1DB10
:1035C0001748FDF771FC40F227711548FDF718FD0B
:1035D00028B9002240F226611148FDF7ECFC0121D8
:1035E0001148FEF741FB10BD70B505460E4600249C
:1035F0000CE000BF40210A48FDF702FD0028F9D089
:10360000295D0748FDF74CFC601CC4B2B442F0DBF6
:1036100000BF40210248FDF7F3FC0028F9D070BD3F
:10362000004800400004024028600240AC03002033
:103630000008001034000020F8B504460D46174677
:103640001E468DF800408DF801508DF802708DF8FF
:10365000036069460020FEF74FFEF8BDF8B504464A
:103660000D4617461E468DF802708DF801508DF8F4
:1036700000608DF8034069460020FEF7DBFEF8BDD0
:103680003EB541F6FF7401210807FDF7E4F901207A
:10369000FFF78FFB0020FFF78BFA45F265018842A8
:1036A00031D00120FDF72BF804E0601C84B20A2021
:1036B000FFF7AEFC4120FCF7DBFF0028F5D00CB98A
:1036C00001203EBD4FF48070FDF71AF90120FDF78F
:1036D00032F97F200190FF20029000200090684680
:1036E000FEF76FFD00231A4638210B20FFF7A4FFD9
:1036F00007231D2205211620FFF7B0FF45F26501C3
:103700000020FFF748FA0020DBE7000070B5034611
:103710000C4603E014F8015B03F8015B151EA2F1EF
:103720000102F7D170BD30B5034601E003F8011B7B
:10373000141EA2F10102F9D130BD10B504467A4938
:1037400051F824104A00794951F824000021FFF76C
:10375000EAFF774951F824207449091F51F82400E1
:103760000021FFF7E0FF01217048001D015510BD49
:1037700010B501460023002207E06C4850F82100F4
:1037800030F8120000B15B1C521C674850F8210051
:103790009042F2D864205843634C54F82140B0FB67
:1037A000F4F0C0B210BD2DE9F04704460F460025E5
:1037B000A9465E48001D005D20B95C480C380168D0
:1037C000204688471FB94FF0FF30BDE8F0875948C1
:1037D00050F82400B7FBF0F6564850F82400B7FB29
:1037E000F0F100FB117000B1761C4F4850F8240036
:1037F000451E20E04D4850F8240030F8150010B95F
:1038000009F1010901E04FF00009B14512D14FF073
:10381000000808E0454850F8240005EB080220F8AD
:10382000126008F10108B045F4D3424850F8240072
:103830006843CAE76D1E002DDCDA4FF0FF30C4E7A5
:103840002DE9F04104460E463848001D005D38B9A8
:1038500036480C380168204688470120BDE8F081D1
:10386000334850F82400B04217D9324850F82400A9
:10387000B6FBF0F12D4850F8240030F81120002557
:1038800007E00023294850F824004F1920F817308A
:103890006D1C9542F5DB0020E0E70220DEE770B505
:1038A00005460C4604B970BD2048001F50F825009D
:1038B000261A31462846FFF7C3FF00BFF3E770B56D
:1038C00004460E4631462046FFF76DFF0546681C4C
:1038D00008B9002070BD1548001F50F82400284486
:1038E000F8E72DE9F04104460F46164631462046DA
:1038F000FFF759FF0546681C10B90020BDE8F081AC
:103900000A49091F51F82410481932463946FFF771
:10391000FDFE39462046FFF7C2FF0448001F50F85D
:1039200024002844EAE70000C0E200082800002044
:10393000C8E20008C4E2000810B508210020FFF723
:10394000BEFF0446002020606060204610BD10B518
:103950000020FFF7F2FEFFF7EFFF3A49086010BDC5
:1039600070B50446002525680DB9002070BD20689B
:10397000C0692060206808B90020606029460020E6
:10398000FFF78DFF2046F1E770B504460CB9002023
:1039900070BD002520210020FFF791FF054607E0BC
:1039A0002046FFF7DDFF20210020FFF788FF0546B6
:1039B000002DF5D00020E861606810B965602560D1
:1039C00002E06068C56165602046E1E701460022CB
:1039D00000200A6802B1012001E0D269401C4B6856
:1039E0009342FAD1704770B5054600242C681CB983
:1039F00015A007F085FC70BD19A007F081FC0EE052
:103A0000002606E004F10B00815D1AA007F078FCA7
:103A1000761C082EF6DB18A007F072FCE4696868D3
:103A2000A042EDD1002606E004F10B00815D11A05B
:103A300007F066FC761C082EF6DB0FA007F060FC92
:103A400000BFD8E7300000207468697320697320D4
:103A5000656D7074792071756575650D0A000000DB
:103A6000546865207175657565206973203A0D0A83
:103A700000000000257809000D0A000010B508219B
:103A80000020FFF71CFF04460020206060602046F5
:103A900010BD10B5FFF7F2FF3149086010BD70B5D9
:103AA0000446002525680DB9002070BD20684068D7
:103AB0002060206808B90020606029460020FFF7D8
:103AC000EEFE2046F1E770B504460CB9002070BD4B
:103AD000002508210020FFF7F2FE054607E02046FA
:103AE000FFF7DDFF08210020FFF7E9FE0546002D66
:103AF000F5D000206860606810B96560256002E05C
:103B00006068456065602046E1E7014600220020CC
:103B10000A6802B1012001E05268401C4B689342E0
:103B2000FAD1704770B5054600242C681CB90DA069
:103B300007F0E6FB70BD11A007F0E2FB04E021787E
:103B400013A007F0DDFB64686868A042F7D1217814
:103B50000FA007F0D5FB08A007F0D2FB00BFE9E7F4
:103B6000340000207468697320697320656D707477
:103B700079207175657565320D0A000054686520FD
:103B8000717565756532206973203A09000000007F
:103B9000253278200000000070B5044600251CB9CD
:103BA00004F036FE054601E0012500BF00BF0DB15F
:103BB000012070BD0020FCE70146002070472DE980
:103BC000F04105460E4617461C464FF0000814B952
:103BD0000420BDE8F08195B9E2B23946304605F0DF
:103BE00079FE804607E004F013FEE2B23946304623
:103BF00005F070FE8046B8F1000FF4D102E04FF0FE
:103C0000010800BF00BFB8F1000F01D10020E0E7BC
:103C10000120DEE72DE9F04105460E4617461C4619
:103C20004FF0000814B90420BDE8F08195B9E2B264
:103C30003946304605F0ACFE804607E004F0E8FD6A
:103C4000E2B23946304605F0A3FE8046B8F1000FD7
:103C5000F4D102E04FF0010800BF00BFB8F1000F3F
:103C600001D10020E0E70120DEE72DE9F04706461C
:103C70008946154646BBB9F1000F09D0B9F1010FCD
:103C800013D0B9F1020F05D0B9F1030F19D106E035
:103C9000002418E04FF400702860002413E00D4861
:103CA000B0F85000288000240DE00A484FF400725C
:103CB0000023D0E91271384607F0FDFA286000248D
:103CC00001E0042400BF00E001242046BDE8F087A5
:103CD00000207047A013002070B503460C4603E097
:103CE00014F8015B03F8015B151EA2F10102F7D184
:103CF00070BD30B5034601E003F8011B141EA2F1AC
:103D00000102F9D130BDF0B503461C460D46002036
:103D100000BF161EA2F1010207D014F8017B15F8AE
:103D200001CBA7EB0C06301EF3D0F0BD024600E03D
:103D3000521C107810B110788842F9D11078704771
:103D400070B504462079F8B1E56A607801232A4607
:103D500004F13001FFF75EFF08B1012070BD0020C3
:103D60002071206A281AA16988420DD2E67809E0FC
:103D7000A0690544607801232A4604F13001FFF769
:103D800049FF761E022EF3D20020E7E770B5044605
:103D90000D46E06AA84210D02046FFF7D1FF08B1D7
:103DA000012070BD607801232A4604F13001FFF73D
:103DB00006FF08B10120F4E7E5620020F1E770B5E5
:103DC00004462046FFF7BCFF0546002D59D1207858
:103DD00003284FD1607901284CD14202002104F11F
:103DE0003000FFF786FF552184F82E12AA2184F8AF
:103DF0002F12522084F830005221312001556121C8
:103E000032200155412133200155722184F81412CA
:103E100084F81512412184F81612612184F81712D2
:103E2000217C84F81812208A010A84F8191220696A
:103E3000010C84F81A122069010E84F81B12217BF0
:103E400084F81C12A089010A84F81D12E068010C94
:103E500084F81E12E068010E84F81F12E069401C0D
:103E6000E0626078012304F13001E26AFFF7D2FEDC
:103E700000206071607800221146FFF7F6FE00B165
:103E80000125284670BD0246891E5069801E884261
:103E900001D8002070479378906A01FB0300F9E78E
:103EA0002DE9F04105460C46022C02D36869A04278
:103EB00002D80120BDE8F0812878012804D002282A
:103EC0002CD003285AD13DE0274607EB5707286A34
:103ED00000EB57212846FFF759FF00B150E0C7F328
:103EE000080105F1300010F801807F1C286A00EB02
:103EF00057212846FFF74AFF00B141E0C7F3080108
:103F000005F13000405C48EA002804F0010010B1DF
:103F10004FEA1810CEE7C8F30B00CBE7286A00EB96
:103F200014212846FFF732FF00B129E040F2FF10CC
:103F300000EA440105F130000E183078717840EA4B
:103F40000120B7E7286A00EBD4112846FFF71EFFCF
:103F500000B115E040F2FF1000EA840105F13000E5
:103F60000E18F0780006B17840EA0140717840EA16
:103F700001203178084320F070409BE7012099E749
:103F800000BF4FF0FF3095E72DE9F04705460E469C
:103F90001746022E02D36869B04202D84FF00208D9
:103FA0008AE02878012804D0022841D003287DD156
:103FB00054E0B14609EB5909286A00EB592128461B
:103FC000FFF7E4FE8046B8F1000F00D071E0C9F3BE
:103FD000080105F130000C1806F0010020B1F9B21B
:103FE000207861F31F1000E03846207009F10109C4
:103FF00001202871286A00EB59212846FFF7C6FEE8
:104000008046B8F1000F00D053E0C9F3080105F174
:1040100030000C1806F0010010B1C7F3071005E0DE
:10402000207800F0F000C7F303210843207040E03F
:10403000286A00EB16212846FFF7A8FE8046B8F153
:10404000000F00D035E040F2FF1000EA460105F114
:1040500030000C182770380A60702AE0286A00EBDC
:10406000D6112846FFF792FE8046B8F1000F00D027
:104070001FE040F2FF1000EA860105F130000C1845
:10408000E0780006A17840EA0140617840EA01202A
:104090002178084300F0704007432770380A6070A9
:1040A000380CA070380EE07003E0FFE74FF0020814
:1040B00000BF00BF012028714046BDE8F0872DE910
:1040C000F04104460E46022E02D36069B04201D888
:1040D000022727E0002721E031462046FFF7E0FED7
:1040E000054605B91DE0012D01D1022719E0681C24
:1040F00008B9012715E0002231462046FFF744FFAA
:10410000074607B10DE02069401C30B12069401C12
:104110002061607940F0010060712E466069B04214
:10412000DAD800BF3846BDE8F0812DE9F0470446F3
:104130008946B9F1000F06D1E76817B16069B84246
:1041400015D8012713E049462046FFF7A9FE064689
:10415000022E02D20120BDE8F087701C08B930465B
:10416000F9E76069B04201D93046F4E74F463D4671
:1041700000BF6D1C6069A84204D80225BD4201D968
:104180000020E8E729462046FFF78AFE064606B9E2
:1041900009E0701C08B1012E01D13046DBE7BD42B9
:1041A000E7D10020D7E700BF6FF0704229462046D4
:1041B000FFF7EAFE8046B8F1000F08D1B9F1000F11
:1041C00005D02A4649462046FFF7DEFE8046B8F174
:1041D000000F0BD1E5602069401C78B12069401EBA
:1041E0002061607940F00100607107E0B8F1010FD3
:1041F00002D14FF0FF3000E0012005462846AAE733
:1042000070B503460D46586A021D680A1E68B678E6
:10421000B0FBF6F400BF02CA09B9002070BD8C42A1
:1042200000D202E0641A121DF5E700BF10682044B6
:10423000F4E72DE9F04104460E46E680A568012D1D
:1042400003D020684069A84202D80220BDE8F0816E
:104250002DB920680078032801D12068456A45B946
:1042600020680089B04201D80220EFE72068476A41
:104270001EE0206880784FEA001812E02946206886
:10428000FFF70EFE0546681C08B90120DEE7022D87
:1042900003D320684069A84201D80220D6E7A6EBE4
:1042A00008064645EAD229462068FFF7ECFD074696
:1042B000E5600FB90220C9E707EB161020612068FE
:1042C000303006F00F0100EB411060610020BDE7C7
:1042D0002DE9F04104468846E088461CB0B208B19A
:1042E000206910B90420BDE8F08106F00F00002815
:1042F0006CD12069401C2061E06828B920680089E1
:10430000B04263D80420EEE720688078401E00EABF
:10431000161000285AD1E1682068FFF7C1FD054654
:10432000012D01D80220DEE7681C08B90120DAE778
:1043300020684069A84243D8B8F1000F01D1042099
:10434000D1E7E1682068FFF7F0FE05460DB90720C8
:10435000C9E7012D01D10220C5E7681C08B9012079
:10436000C1E72068FFF7ECFC08B10120BBE721683A
:1043700001F130004FF400720021FFF7BAFC29462A
:104380002068FFF780FD2168C86200270EE0012049
:10439000216808712068FFF7D3FC08B10120A2E76B
:1043A0002068C06A401C2168C8627F1C2068807831
:1043B000B842ECD82068C06AC01B2168C86200BF40
:1043C000E56029462068FFF75EFD2061E6802068F1
:1043D000303006F00F0100EB41106061002082E7F1
:1043E0002DE9F04104460E4600212046FFF721FF4B
:1043F0000546EDB9002700BF21692068FFF7C6FC1C
:10440000054605B113E060690078E52802D06069CF
:10441000007820B9781C0746B04201D107E0002798
:1044200001212046FFF754FF0546002DE4D000BFD0
:10443000042D00D107252846BDE8F08110B50246BD
:104440008C7ECB7E44EA03201378032B05D10C7DB0
:104450004B7D44EA032340EA034010BD81760B0AFA
:10446000C3760A0C02750B0E437570472DE9F047B1
:1044700005460C46207820F04000401E00EB8001ED
:1044800001EBC00600274FF0010800BFF848C05DEF
:10449000205CF749C95D2144497840EA0129B8F117
:1044A000000F10D0484602F041FD8046FF2E07D293
:1044B0003146761C35F8110002F038FD404508D031
:1044C0000020BDE8F0874FF6FF70814501D0002045
:1044D000F7E7781C07460D28D8D3207800F0400075
:1044E00038B1B8F1000F04D035F8160008B100203B
:1044F000E7E70120E5E7F0B50346087800F03F0064
:10450000401E00EB800707EBC0020025012600BF1C
:10451000D748405D085CD64F7F5D0F447F7840EA06
:1045200007244EB1FF2A01D30020F0BD26461046D5
:10453000521C23F8104005E04FF6FF70844201D072
:104540000020F2E7681C05460D28E1D3087800F04A
:10455000400030B1FF2A01D30020E6E7002023F815
:1045600012000120E1E7F0B504461D464D730F2708
:10457000CF7200270F738F76BC4681F81BC0571E81
:1045800007EB870C0CEBC706002738463B4600BFFD
:104590004FF6FF77B84203D03746761C34F8170041
:1045A000DFF8CCC21CF803C001F80C000712DFF8DA
:1045B000C0C21CF803C08C448CF8017008B94FF6D7
:1045C000FF705F1C3B460D2FE2D34FF6FF77B842DA
:1045D00002D034F816700FB942F040020A70F0BDF4
:1045E0002DE9FC4707468A4690461E460B22514657
:1045F0003846FFF771FB052E18D9304610E038F821
:10460000021B00250AE00A4660F35F0210464910CB
:1046100000F480320AB1974A50406D1C102DF2D33D
:10462000B8F80020002AEAD1064600BF072500BFDF
:1046300006F00F0000F13009B9F1390F03DD09F17F
:10464000070000F0FF0928466D1E0DF8009036099E
:10465000002EEDD17E200DF8050000240BE0385D22
:10466000812807DB385DFE2804DC681EA04200D1EB
:1046700006E0641C641CAC4202D2385D2028EED1F6
:1046800000BF00BF082D04D228466D1C1DF8001085
:1046900000E020212046641C3954082CF2D3BDE8E8
:1046A000FC8730B5014600200B2200BF431003EB0E
:1046B000C01411F8015B6319D8B2531E1A1EF5D14C
:1046C00030BD2DE9F047044600212046FFF7B1FD3B
:1046D000074617B13846BDE8F0874FF0FF09CA46D4
:1046E0004FF6FF70208400BF21692068FFF74EFB62
:1046F000074607B157E065692E780EB9042752E0E6
:10470000E87A00F03F08E52E05D008F0080040B137
:10471000B8F10F0F05D04FF0FF094FF6FF7020845E
:104720003AE0B8F10F0F1CD1E06978B306F0400011
:1047300030B195F80DA026F04006B146E0882084FF
:104740004E450AD1687B504507D12946E069FFF7FD
:104750008DFE10B1A9F1010000E0FF2000F0FF097B
:104760001AE0B9F1000F05D12846FFF79AFF50452E
:1047700000D118E0A069C07A00F0010038B90B221E
:104780002846A169FFF7BFFA08B90CE004E04FF032
:10479000FF094FF6FF70208400212046FFF798FDA7
:1047A0000746002FA0D000BF384694E72DE9F05F00
:1047B00004468A464FF0FF09CB4604274EE02169A4
:1047C0002068FFF7E3FA074607B14AE066693578E3
:1047D0000DB9042745E0F07A00F03F08E52D09D037
:1047E0002E2D07D0B8F1080F01D1012000E00020E4
:1047F000504502D04FF0FF0929E0B8F10F0F1AD150
:1048000005F0400030B196F80DB025F04005A946FE
:10481000E08820844D450AD1707B584507D1314648
:10482000E069FFF768FE10B1A9F1010000E0FF2088
:1048300000F0FF090BE0B9F1000F04D13046FFF79B
:1048400030FF584502D04FF6FF70208409E0002168
:104850002046FFF73DFD074607B102E0206900282A
:10486000ADD100BF0FB1002020613846BDE8F09FF8
:10487000CCE20008211001002DE9FE4F0446D4F8D7
:104880001880D4F81C900C2241466846FFF724FAA1
:1048900000BF9DF80B0000F0010020B3002088F855
:1048A0000B00E06101260CE033464A46694640466B
:1048B000FFF796FE2046FFF704FF054605B102E02C
:1048C000761C642EF0D300BF642E02D10720BDE811
:1048D000FE8F042D01D02846F9E79DF80B0088F8DB
:1048E0000B00C4F81C909DF80B0000F0020060B1B2
:1048F000002600E0761C39F816000028FAD106F1EF
:1049000019000D21B0FBF1F700E0012739462046E0
:10491000FFF766FD054645BB781E071E25D0E088DB
:10492000C11B2046FFF785FC0546F5B9A069FFF7D6
:10493000B8FE824600BF21692068FFF727FA0546C6
:1049400005B111E0FAB253466169E069FFF70BFE69
:1049500001202168087100212046FFF7B9FC0546B7
:1049600015B9781E071EE6D100BFC5B921692068B8
:10497000FFF70CFA054695B9202200216069FFF780
:10498000B8F90B22D4E90501FFF7A6F9A069C07AAE
:1049900000F0180061690873012021680871284639
:1049A00095E770B50446E688208C4FF6FF7290427A
:1049B00001D1304600E0208C01462046FFF739FC4B
:1049C00005460DBB00BF21692068FFF7DFF90546EA
:1049D00005B115E0202200216069FFF78AF9E52082
:1049E00061690870012021680871E088B04200D335
:1049F00006E000212046FFF76BFC0546002DE2D0C3
:104A000000BF042D00D10225284670BD2DE9F047D6
:104A100007460C4604F109063869002843D0786936
:104A2000002526E029466D1C10F80180B8F1200F02
:104A300000D11EE0B8F1050F01D14FF0E508092DB6
:104A400002D12E2106F8011BB8F1410F0EDBB8F19F
:104A50005A0F0BDC017B092D01D3102200E0082244
:104A6000114019B108F1200101F0FF0806F8018B8F
:104A700000BF0B2DD6D3C17A2172C17F0A06817F78
:104A800042EA0142417F42EA0121027F1143216053
:104A9000027E417E42EA0121A180827DC17D42EAFF
:104AA0000121E18000BF00203070A06990B3002593
:104AB000A669386958B3E06948B3388C4FF6FF717E
:104AC000884224D0D7F81CA01BE00021484602F001
:104AD000F3F98146B9F1000F01D1002516E0B9F1D3
:104AE000FF0F04DD4FEA292228466D1C3254E0698D
:104AF000401EA84201D8002508E028466D1C06F893
:104B000000903AF8021BB1F10009DED100BF00208D
:104B1000705500BFBDE8F0872DE9F34F83B08146A3
:104B200004980068019002E00198401C01900198EF
:104B300000782F28F8D0019800785C28F4D0D9F8B4
:104B40001CA000252F4600BF38467F1C01990C5C35
:104B5000202C03DB2F2C01D05C2C00D132E0FF2D68
:104B600003D3062005B0BDE8F08FE4B2812C13DB3F
:104B7000E0B2FE2810DC38467F1C01990E5C402E06
:104B800001DB7E2E05DD802E01DBFE2E01DD062001
:104B9000E8E706EB042084B20121204602F08CF9FC
:104BA00004460CB90620DDE7802C06DA2146F9A080
:104BB000FFF7BCF808B10620D4E728466D1C2AF898
:104BC0001040C1E700BF0198C11904980160202C72
:104BD00001DA042000E00020804608E0681E3AF870
:104BE0001040202C02D02E2C00D002E06D1E002D93
:104BF000F4D100BF0DB90620B4E700202AF8150053
:104C00000B222021D9F81800FFF773F8002700E0E5
:104C10007F1C3AF817002028FAD03AF817002E28FF
:104C2000F6D00FB148F0030800E06D1E25B1681EF4
:104C30003AF810002E28F8D10020064602904FF0D6
:104C4000080B00BF38467F1C3AF8104004B963E0F7
:104C5000202C03D02E2C04D1AF4202D048F0030800
:104C6000F0E70298584501D2AF4214D1BBF10B0FC7
:104C700002D148F003084FE0AF4201D048F00308EA
:104C8000AF4200D948E02F46082002904FF00B0BAE
:104C9000B006060ED6E7802C09DB204602F046F966
:104CA0000021009002F008F9044648F00208FF2CA9
:104CB00011DDABF101000299884204D848F00308E5
:104CC000CDF808B0BEE72212D9F818300298411C7E
:104CD00002911A5419E024B12146B1A0FFF726F839
:104CE00018B15F2448F003080FE0412C04DB5A2C74
:104CF00002DC46F0020608E0612C06DB7A2C04DCBC
:104D000046F00106A4F1200084B2D9F818300298C8
:104D1000411C02911C5495E700BFD9F81800007897
:104D2000E52803D10520D9F818100870BBF1080F49
:104D300001D1B006060E06F00C000C2803D006F0D8
:104D40000300032801D148F0020808F0020058B916
:104D500006F00300012801D148F0100806F00C000D
:104D6000042801D148F00808D9F8180080F80B8011
:104D70000020F7E62DE9F3410446019800782F283A
:104D800003D0019800785C2802D10198401C019062
:104D90000020A06001980078202807D2002120463A
:104DA000FFF747FA05460020606128E000BF01A92F
:104DB0002046FFF7B1FE054605B11FE02046FFF78C
:104DC00080FC0546A069C67A3DB1042D04D100BF20
:104DD00006F0040000B9052510E006F0040000B15B
:104DE0000CE06769F87A00F0100008B9052505E0C5
:104DF00039462068FFF722FBA060D8E700BF2846AD
:104E0000BDE8FC8170B502464FF0FF301568E5B192
:104E1000116800E0491C0D78202D02D30D783A2D41
:104E2000F8D10D783A2D0FD1146814F8015BA5F173
:104E300030030A2B07D28C4205D1032B03D218462C
:104E40004D1C2946156070BD002000BFFBE770B502
:104E500004460D4600202071401EE062294620468F
:104E6000FEF794FF08B1032070BD94F82E1294F859
:104E70002F0241EA00204AF65521884201D0022043
:104E8000F2E794F86900010694F8680041EA0041ED
:104E900094F8670041EA002094F86610084320F077
:104EA0007F404149884201D10020DDE794F8850028
:104EB000010694F8840041EA004194F8830041EA35
:104EC000002094F88210084320F07F403649884241
:104ED00001D10020C8E70120C6E72DE9F74F88B0CF
:104EE0000021089801600998FFF78CFF0790079848
:104EF000002803DA0B200BB0BDE8F08F2B49079890
:104F000051F820400CB90C20F5E70898046020788F
:104F100078B16078FEF750FE804608F0010040B995
:104F20000A9820B108F0040008B10A20E3E7002045
:104F3000E1E700202070079860706078FEF72CFE93
:104F4000804608F0010008B10320D4E70A9820B198
:104F500008F0040008B10A20CDE7002739462046B2
:104F6000FFF775FF0546012D01D09DBB3BE00026F4
:104F700022E004F5F77101EB06100179C1B1C17AA5
:104F80000A06817A42EA0142417A42EA0121027A22
:104F900011430EE0222A3A3C3E3F7C7F0000000095
:104FA0002B2C3B3D5B5D0000464154002811002046
:104FB00000214DF82610761C042EDAD3002606B107
:104FC000761E00BF5DF826702FB139462046FFF7E8
:104FD0003EFF01E007E0022005461DB1701C0646B9
:104FE0000428EFD300BF032D01D1012083E70DB1C9
:104FF0000D2080E73B20015D94F83C0041EA002051
:10500000B0F5007F01D00D2075E74620015D94F8D2
:10501000470041EA0029B9F1000F0ED194F857007A
:10502000010694F8560041EA004194F8550041EA1F
:10503000002094F8541040EA0109C4F81890402068
:10504000005DE070E078012804D0E078022801D00B
:105050000D2050E7E07809FB00F93D20005DA070CD
:10506000A07818B1A078411E084008B10D2042E791
:105070004120015D94F8420041EA00202081207A1D
:1050800000F00F0008B10D2035E74320015D94F8D2
:10509000440041EA002BBBF1000F0ED194F85300FD
:1050A000010694F8520041EA004194F8510041EAA7
:1050B000002094F8501040EA010B3E20015D94F866
:1050C0003F0041EA00200490049808B90D2012E73F
:1050D00004984844218900EB1110069006988345F6
:1050E00001D20D2007E70698ABEB0000A178B0FBDA
:1050F000F1FABAF1000F01D10D20FCE6012540F6CE
:10510000F670824500D302254FF6F670824500D333
:1051100003250AF102006061E761049838442062C7
:1051200006983844A062032D16D1208908B10D20BD
:10513000E1E694F85F00010694F85E0041EA004160
:1051400094F85D0041EA002094F85C100843606226
:1051500060698000059014E0208908B90D20CAE636
:10516000206A48446062022D02D16069400007E075
:10517000207D00F00100616901EB410100EB51006D
:105180000590A169059800F2FF10B1EB502F01D2F4
:105190000D20B0E64FF0FF302061E06080206071AC
:1051A000032D5AD194F8601094F8610041EA002070
:1051B000012852D1791C2046FEF7E8FDE8BB00200B
:1051C000607194F82E1294F82F0241EA00204AF6FA
:1051D0005521884241D13320005D01063220005D17
:1051E00041EA00413120005D41EA002094F830108E
:1051F0000843FE49884230D194F81702010694F81A
:10520000160241EA004194F8150241EA002094F8A0
:1052100014120843F64988421FD194F81B02010674
:1052200094F81A0241EA004194F8190241EA002078
:1052300094F818120843206100E00EE094F81F0271
:10524000010694F81E0241EA004194F81D0241EA69
:10525000002094F81C120843E0602570E54800889F
:10526000401C80B2E3490880E080002043E670B52E
:1052700005462C464CB1206838B12068007820B132
:105280002068C088A188884201D0092070BD2168AB
:105290004878FEF791FC00F0010008B10320F5E723
:1052A0000020F3E7F7B582B016460398019001A8F5
:1052B000FFF7A8FD0546002D02DA0B2005B0F0BD72
:1052C000CD4850F825400CB100202070029810B154
:1052D000002002990870C849029841F825000298F8
:1052E00008B1012E01D00020E8E7002203A902A89E
:1052F000FFF7F3FD07463846E0E72DE9F7438CB0AA
:10530000054616461DB909200FB0BDE8F083002000
:10531000286006F01F0626F001020DA903A8FFF77A
:10532000DCFD0746002F7DD1CDF824D0B3480A908C
:1053300003A80D99FFF71EFD0746089C0FB904B995
:10534000062706F01C00002851D04FB1042F03D1CE
:1053500003A8FFF791FA074646F00806089C09E003
:10536000E07A00F0110008B1072703E006F004001E
:1053700000B10827002F39D106F00800002835D0E9
:10538000FEF7A6FC804684F80E804FEA1821E173F0
:105390004FEA184121744FEA186161740020E072ED
:1053A000207700216177A177E17721460398FFF705
:1053B00045F8814600212046FFF750F80120039967
:1053C0000871B9F1000F11D00398D0F82C8049462C
:1053D0000398FEF774FE074647B9A9F10100039947
:1053E000C86041460398FEF7D1FC07460EE06FB94E
:1053F000E07A00F0100008B1042707E006F0020090
:1054000020B1E07A00F0010000B1072747B906F0AB
:10541000080008B146F020060398C06AE8612C62D3
:1054200007B900E01BE0AE710020E8712146039847
:10543000FFF704F82861E07F0106A07F41EA004100
:10544000607F41EA0020217F0843E8600020A860D7
:10545000A8616862039828602868C088A8803846D8
:1054600052E72DE9FF4F83B0044615469A46DDF812
:1054700010B00020CAF800002046FFF7F8FE0290A6
:10548000029818B1029807B0BDE8F08FE07908B132
:10549000E079F8E7A07900F0010008B90720F2E709
:1054A000D4E90210401A00900098854200D9009D6E
:1054B000B5E02089C0F30800002876D12068807804
:1054C000401EA16800EA512000F0FF09B9F1000F69
:1054D0001FD1A06810B9206901900CE0606A28B162
:1054E0002046A168FEF78CFE019004E06169206807
:1054F000FEF7D6FC01900198022802D20220E0714A
:10550000C1E70198401C10B90120E071BBE7019888
:10551000606161692068FEF7B6FC064616B9022094
:10552000E071B0E74E444FEA5528B8F1000F29D09A
:1055300009EB080021688978884203D920688078BF
:10554000A0EB090821684878434632465946FEF7E1
:1055500036FB10B10120E07195E7A07900F0400022
:1055600068B1A069801B404509D2A169891B0BEB7A
:1055700041204FF4007204F12801FEF7ADFB4FEA21
:10558000482742E0A069B04220D0A07900F0400056
:1055900080B121684878012304F12801A269FEF74F
:1055A00039FB18B10120E0716DE710E0A07920F01F
:1055B0004000A071216848780123324604F1280197
:1055C000FEF7FDFA10B10120E0715CE7A6612089C9
:1055D000C0F30800C0F50077AF4200D92F462089FC
:1055E000C0F3080204F12800111809E05252614189
:1055F000727241613800002028110020341100200F
:105600003A465846FEF768FB00BFBB44A0683844E2
:10561000A060DAF800003844CAF80000ED1B002D45
:105620007FF447AF00202EE72DE9FF4F83B00446FB
:1056300015469B46049801900020CBF800002046B8
:10564000FFF715FE0290029818B1029807B0BDE866
:10565000F08FE07908B1E079F8E7A07900F0020076
:1056600008B90720F2E7A0682844A168884200D260
:105670000025BEE02089C0F3080000287DD1206805
:105680008078401EA16800EA512000F0FF0ABAF1BC
:10569000000F26D1A06838B9276997B90021206882
:1056A000FEF743FD07460CE0606A28B12046A1687A
:1056B000FEF7A6FD074604E061692068FEF735FDA8
:1056C000074607B998E0012F02D10220E071BDE73B
:1056D000781C10B90120E071B8E76761206900B952
:1056E0002761A07900F0400078B121684878012353
:1056F00004F12801A269FEF78DFA10B10120E071D2
:10570000A4E7A07920F04000A07161692068FEF74D
:10571000BAFB064616B90220E07197E756444FEAF5
:105720005529B9F1000F2CD00AEB090021688978BE
:10573000884203D920688078A0EB0A09216848785C
:105740004B4632460199FEF765FA10B10120E0712F
:105750007CE7A069801B48450ED2A069801B019A96
:1057600002EB40214FF4007204F12800FEF7B4FA76
:10577000A07920F04000A07100E016E04FEA49282F
:105780002AE0A069B0420FD0D4E9020188420BD2CE
:10579000216848780123324604F12801FEF70FFA08
:1057A00010B10120E07151E7A6612089C0F3080023
:1057B000C0F50078A84500D9A8462189C1F30802A0
:1057C00004F12801501842460199FEF785FAA079A4
:1057D00040F04000A07100BF019840440190A068D3
:1057E0004044A060DBF800004044CBF80000A5EB8B
:1057F0000805002D7FF43EAF00BFD4E902018842C6
:1058000001D9A068E060A07940F02000A0710020DC
:105810001CE72DE9F04104462046FFF728FD074626
:10582000002F4CD1A07900F02000002847D0A079AB
:1058300000F0400078B121684878012304F1280184
:10584000A269FEF7E7F910B10120BDE8F081A07967
:1058500020F04000A071E1692068FEF797FA074642
:10586000002F2CD1256AE87A40F02000E872207BD6
:105870002877A089010A6977E068010CA977E068B8
:10588000010EE97728462169FEF7E8FDFEF720FAC8
:105890000646AE75310AE975310C2976310E697606
:1058A0000020A8740021E974A07920F02000A071E4
:1058B0000120216808712068FEF781FA0746384602
:1058C000C3E770B505462846FFF7A3FF044644B971
:1058D0002846FFF7CCFC04460CB90020286020467F
:1058E00070BD2046FCE72DE9FE4F04460D462046DC
:1058F000FFF7BDFC0290029810B10298BDE8FE8F40
:10590000E07908B1E079F9E7606A002871D0681C95
:1059100000283BD1D4F8248058F804AB4FF002099A
:1059200026693EB300BF00964FF0000B09F1020953
:1059300000BF01960BF1010B31462068FEF7B0FA6B
:105940000646012E02D80220E071D7E7701C10B97C
:105950000120E071D2E70198401C8642E9D0D14590
:1059600004D848F804BB009848F8040B2068406944
:10597000B042D8D8606AC0F80090D14503D8002062
:10598000C8F8000047E01120029044E0E068A84217
:1059900000D2E568A560002D3DD0691E2046FEF7C7
:1059A0002FFC606161692068FEF76DFA074617B940
:1059B0000220E071A2E720688078401E691E00EA9C
:1059C000512007442089C0F3080020B3A069B842E1
:1059D00021D0A07900F0400080B1216848780123EF
:1059E00004F12801A269FEF715F918B10120E07150
:1059F00084E711E0A07920F04000A0712168487888
:105A000001233A4604F12801FEF7D9F810B101202C
:105A1000E07173E7A761ABE0E068A84204D2A07927
:105A200000F0020000B9E568D4F808904FF00008D3
:105A3000C4F80880002D67D0206880784702B9F14B
:105A4000000F11D0681EB0FBF7F1A9F10100B0FB07
:105A5000F7F0814208D3A9F10100791E8843A060C4
:105A6000A0682D1A666912E026697EB900212068B7
:105A7000FEF75BFB0646012E02D10220E0713DE7F6
:105A8000701C10B90120E07138E726616661C6B369
:105A900023E0A07900F0020038B131462068FEF71B
:105AA00044FB064636B93D4619E031462068FEF70C
:105AB000F7F90646701C10B90120E0711EE7012EAF
:105AC00003D920684069B04202D80220E07115E78E
:105AD0006661A0683844A060ED1BBD42D9D800BF04
